:0300000002108D5E
:0C108D00787FE4F6D8FD7581580210D47D
:10002600B7EBBAA3CCCE4C4F5645D1EEBEA7BEA772
:1000360000C0B6D1C0B4F2BFAA2E202E202E006179
:1000460062636465666768696A6B6C6D6E6F707112
:1000560072737475767700FFFFFFFFFFFFFFFFFFE8
:10006600FFFFFFFFFFFFFFFFFFFFFFFFFFFFFFFF9A
:10007600FFFFFFFFFFFFFFC00000000000000000C1
:1000860000000000000003C00000000000000000A7
:1000960000000000000003C0000000000000000097
:1000A60000000000000003C0000000000000000087
:1000B60000000000000003C0000000000000000077
:1000C60000000000000003C0000000000000000067
:1000D60000000000000003C01FFF81FFF0000000C9
:1000E60000000000000003C01FFF81FFF0000000B9
:1000F60000000000000003C018018000000000009E
:1001060000200800000003C01FFF800000040781D4
:10011600E0101003C03003C01FFF8000000C0CC3AA
:100126003008200CE07003C0180187FFFE3C1866FB
:100136001804400C607003C01FFF87FFFE0C186692
:100146001802801800B003C01FFF8006000C186656
:100156001801001B813003C001980006000C00E363
:100166003002801CC13003C019998066600C00C142
:10017600E0044018623003C019998066300C018390
:1001860030082018663003C00D9B00C6380C0306E5
:100196001810101867FC03C00D9B01C61C0C060640
:1001A60018200818603003C0019803860C0C0C0652
:1001B60018000008603003C07FFFE306000C180338
:1001C6003000000CC03003C07FFFE01E000C1FE1B2
:1001D600E0000007803003C00000001C00000000A3
:1001E60000000000000003C0000000000000000046
:1001F60000000000000003C0000000000000000036
:1002060000000000000003C0000000000000000025
:1002160000000000000003C0000000000000000015
:1002260000000000000003C0000000000000000005
:1002360000000000000003C00000000000000000F5
:1002460000000000000003C00000000000000000E5
:1002560000000000000003C000000000000C0000C9
:1002660018000000060C03C3FFFC3FF0800C003FA3
:100276001801FFFE060C03C3FFFC3FF1800FFC3F95
:100286001801FFFE060C03C30C0C0CC3000FFC3355
:100296007FE18606060C03C31FCC0CC6000C003398
:1002A6007FE18FE6060C03C33FCC0CCC000C003676
:1002B60030019FE607FFE3C3798C0CC800FFF036D8
:1002C6003601BCC607FFE3C36F0C7FF0C0FFF036F4
:1002D6006601B786060003C30F0C7FF180C0303677
:1002E6007FC18786060003C379EC0CC300C0303398
:1002F6007FC1BCF6060003C376EC0CC600C03033E3
:100306000601BB7607FF03C3070C0CCC20FFF033B6
:100316000601838607FF03C3030C18C860FFF03F7E
:1003260006018186060303C31C0C18C0C000003EEC
:10033600FFE18E06060303C31F0C18C181B18C3082
:10034600FFE18F86060303C3030C30C701B18C306F
:10035600060181860C0303C3FFFC70DE0318C6305A
:100366000601FFFE0C0303C3FFFC20180318C6306A
:100376000601FFFE180303C0000000000000000095
:1003860000000000000003C00000000000000000A4
:1003960000000000000003C0000000000000000094
:1003A60000000000000003C0000000000000000084
:1003B60000000000000003C0000000000000000074
:1003C60000000000000003C0000000000000000064
:1003D60000000000000003C0000000000000000054
:1003E60000000000000003C0000000000000000044
:1003F60000000000000003C0000000000000000034
:1004060000000000000003C0000000000000000023
:1004160000000000000003C0000000000000000013
:1004260000000000000003C0000000000000000003
:1004360000000000000003FFFFFFFFFFFFFFFFFFBC
:10044600FFFFFFFFFFFFFFFFFFFFFFFFFFFFFFFFB6
:10045600FFFFFFFFFFFFFF0000000000000000009D
:100466000000000000000000000000000FC0C300F4
:10047600C000000000000000000000001FE0C200F5
:10048600401FE00000000000000000006030C200D5
:10049600403FF80000000000000000006030C2008D
:1004A6004060180000000000000000006030C2003C
:1004B6004060180000000000000000006070C200EC
:1004C60040601800000000000000000060E0C2006C
:1004D60040601800000000000000000063C0C20079
:1004E600407FF00000000000000000007F80C20096
:1004F600407FC00000000000000000006380C200D2
:1005060040600000000000000000000061C0C20062
:1005160040600000000000000000000060E0C20033
:100526004060000000000000000000006070C20093
:100536004060000000000000000000006030C200C3
:100546004060000000000000000000006030C200B3
:100556004060000000000000000000006030C100A4
:10056600403FF80000000000000000006060C1800D
:10057600800FF000000000000000000060C0C0FF17
:100586000007E00000000000000000001F80C07EA1
:100596000000000000000000000000000000000055
:1005A6000000000000000000000000000000000045
:1005B6000000000000000000000000000000000035
:1005C6000000000000000000000000000000000025
:1008560000000000000000BBB6D3ADCAB9D3C30088
:10086600C0B6D1C0BFD8D6C600D6C7C4DCBCD2BEBF
:10087600D3CFB5CDB30054696D653A323031372DDB
:1008860031322D313600BAA3C4C9B0D9B4A8BFEDF0
:10089600C8DDCEAACFC8D3FBB3C9B4F3D2B5B3CFA4
:1008A600D0C5CEAACFC8D3CEDFAEC9CCBAA3BCC3FF
:1008B600CAC0CEAACFC8C8CBC1A2D3DACAC0CAD8CA
:0708C600B7A8CEAACFC800BD
:10134B00032200000118250000000000000000002F
:10135B000000000000000000000000000000000181
:02136B003E0042
:100DCC0012118D7E007F5D120FE47FC87E00120031
:100DDC0003C290D296D2971214051211197F327E4B
:100DEC000012132B7BFF7A08795D7D02E4FF120E53
:100DFC00EF7BFF7A0879667D027F01120EEF7BFF95
:100E0C007A08796F7D017F02120EEF7A08797C12D5
:100E1C000EE97F647E00120003E523640160030287
:100E2C000ED97F64FE1200031211197F327E00125C
:100E3C00132B7B007A007925E4FDFF120EEF7F6403
:100E4C007E001200037E007F187D007B007A007903
:100E5C0025120D2BE4F53EF523E53D249E601F1471
:100E6C00602714603914604514605E2405706712A5
:100E7C0011191213277E087F8C1211DF8042121178
:100E8C001912132712143680371211191213277BDB
:100E9C00FF7A007926E4FD7F01120EEF80221211F9
:100EAC00191213277A007937120EE98013121119CF
:100EBC001213277BFF7A0079457D017F02120EEF1A
:100ECC007FC87E00120003800DB2908009E523706C
:0D0EDC00057F5212136EE5246401020E25FD
:10140500759850438920758DFDD28ED2AFD2ACC26E
:02141500AB2208
:10136E008F3F7F147E0012132BE53FB45403B296C9
:09137E0022E53FB45202B29722AD
:0300230002122E98
:10122E00C0E0C0D075D000C000C00730981EC29874
:10123E00859922752301E53EC39418500CAF3E05E7
:10124E003E74252FF8A6998003753E00309905C28D
:0D125E0099752401D007D000D0D0D0E03227
:06144400E4F523AF2222B3
:06144A00E4F5248F992255
:1012A7008B1C8A1D891EAB1CAA1DA91E120C296046
:1012B7001BE52460FCAB1C051EE51EAA1D7002057C
:0D12C7001D14F9120C29FF12144A80DA22BE
:101119007F287E0012132BD2A17F017E0012132B90
:10112900C2A37F017E0012132BD2A37F0A7E001275
:10113900132BC2097F301212DF121327C2097F3025
:101149001212DF7F257E0012132BC2097F081212AB
:10115900DF121327C2097F101212DF121327C209E7
:101169007F0C1212DF121327C2097F011212DF7FCF
:101179000A7E0012132BC2097F061212DF7F647EDA
:041189000002132B22
:10118D007F287E0012132BD2A17F017E0012132B1C
:10119D00C2A37F017E0012132BD2A37F0A7E001201
:1011AD00132BC2097F361212DF121327C2097F36A5
:1011BD001212DF7F257E0012132BC2097F3E121201
:1011CD00DF121327C2097F011212DF7F647E000236
:0211DD00132BD2
:0411DF008E3F8F4070
:1011E300AA06A9077BFF1213F08F42C2097F801260
:1011F30012DFE4F5411212D40540E5407002053FC9
:101203000541E541C3942040ECC2097F901212DFEF
:10121300121327E4F5411212D40540E5407002058C
:0A1223003F0541E541C3942040EC73
:01122D00229E
:060EE9007BFFE4FD7F0326
:0A0EEF008F3F8D408B418A428943FA
:100EF900E4F545C2097F301212DFC2097F061212DA
:100F0900DFE53F7005754480801CE53FB401057538
:100F190044908012E53FB402057544888008E53F96
:100F2900B40303754498E5442540FFC209020FDD67
:100F3900AB41AA42A943120C29FF7003020FE3D265
:100F4900091212DF74012543F543E43542F54205E0
:100F590045E54075F002A47C002545FFEC35F0FE1F
:100F6900EF64104E7020E53F7006C2097F908064DF
:100F7900E53FB40106C2097F888059E53FB402B054
:100F8900C2097F98804EE54075F002A47C00254592
:100F9900FFEC35F0FEEF64204E7016E53F7006C297
:100FA900097F88802FE53F64017085C2097F988099
:100FB90023E54075F002A47C002545FFEC35F0FEE1
:100FC900EF64304E6003020F39E53F6003020F39C9
:0A0FD900C2097F981212DF020F39DF
:010FE30022EB
:0E143600C2097F011212DFC209E4FF0212DFB9
:0B12D400854082853F83E493FFD20930
:1012DF008F46121427C2A5A20992A47F017E001285
:1012EF00132B854680D2A67F017E0012132BC2A638
:0112FF0022CC
:10000300E4FDFCC3ED9FEC9E5015E4FBFA0BBB0033
:0F001300010ABA07F8BBD0F50DBD00010C80E45F
:0100220022BB
:041327007F647E0061
:10132B00E4FDFCC3ED9FEC9E5015E4FBFA0BBB00F8
:0F133B00010AEB640A4A70F50DBD00010C80E455
:01134A002280
:040FE4008E3F8F406D
:100FE800E4F541F542E5422480FFC2091212DFC24E
:100FF800097F801212DFE4F543F544854082853F7E
:10100800831212DA0540E5407002053F0544E544C5
:1010180070020543C39410E5436480948040DC0566
:1010280042E54270020541C39420E5416480948002
:1010380040B3E4F541F542E5422480FFC2091212AB
:10104800DFC2097F881212DFE4F543F54485408248
:10105800853F831212DA0540E5407002053F0544DA
:10106800E54470020543C39410E5436480948040CE
:10107800DC0542E54270020541C39420E5416480E5
:04108800948040B35D
:01108C002241
:0F1427007580FFC2A4D2A5D2A62087FDC2A6223F
:10126B0041542B44454641554C540041542B524557
:10127B005345540041542B4E414D453D2573004180
:10128B00542B4E414D453D3F0041542B434C454162
:0C129B00520041542B4C45443D2564009A
:101387008B4D8A4E894FA801AC02AD037BFF7A12C1
:05139700796B020D0E50
:10139C008B508A518952A801AC02AD037BFF7A12A3
:0513AC007976020D0E30
:1013B100750BFF750C12750D7F854A0E854B0F85D8
:0513C1004C1002092997
:1013C6008B538A548955A801AC02AD037BFF7A1270
:0513D600798A020D0EF2
:1013DB008B568A578958A801AC02AD037BFF7A1252
:0513EB007994020D0ED3
:10141700750BFF750C12750D9D8C0E8D0F0209292A
:10109900020DCCE493A3F8E493A34003F68001F294
:1010A90008DFF48029E493A3F85407240CC8C33358
:1010B900C4540F4420C8834004F456800146F6DF27
:1010C900E4800B010204081020408090134BE47E59
:1010D900019360BCA3FF543F30E509541FFEE4931C
:1010E900A360010ECF54C025E060A840B8E493A3E3
:1010F900FAE493A3F8E493A3C8C582C8CAC583CA0E
:10110900F0A3C8C582C8CAC583CADFE9DEE780BEC5
:01136D00007F
:100C2900BB010689828A83E0225002E722BBFE02C9
:090C3900E32289828A83E49322FC
:1008CD00E517240BF8E60517227808300702780B98
:1008DD00E475F001120D96020C292000EB7F2ED24B
:1008ED00008018EF540F2490D43440D4FF30040B03
:1008FD00EF24BFB41A0050032461FFE51860021500
:10090D0018051BE51B7002051A30070D7808E475F4
:10091D00F001120D96EF020D840213007403D2073D
:10092D008003E4C207F5178B088A09890AE4F518D4
:10093D00F51AF51BE51860077F2012090880F5757B
:10094D0019FFC201C200C202C203C205C206C2081B
:10095D001208D6FF700D3007057F00120919AF1B65
:10096D00AE1A22B4255FC2D5C2041208D6FF24D018
:10097D00B40A00501A75F00A781830D50508B6FF7C
:10098D000106C6A426F620D5047002D20380D92410
:10099D00CFB41A00EF5004C2E5D204020B19D201F4
:1009AD0080C6D20080C0D20280BCD2D580BAD2051A
:1009BD0080B47F201209082002077401B518004089
:1009CD00F11208CDFF120908020941D208D20680A2
:1009DD00951208CDFB1208CDFA1208CDF94A4B70CD
:1009ED000679EA7A0B7BFF20022EE518602A7E003D
:1009FD008E82758300120D5760060EEE651970F02C
:100A0D00C2D5EBC0E0EAC0E0E9C0E0EE120B60D069
:100A1D00E0F9D0E0FAD0E0FB120C29FF60AAEBC0A0
:100A2D00E0EAC0E0E9C0E0120908D0E02401F9D005
:100A3D00E03400FAD0E0FBE5190460DCD519D9806B
:100A4D00877BFF7A0B795CD202809C7910800279CA
:100A5D0008C206C2088008D2D5790A8004790AC274
:100A6D00D5E519047002F519E4FAFDFEFF1208CD63
:100A7D00FC7B082001131208CDFD7B1030000A12FB
:100A8D0008CDFE1208CDFF7B20EC3382D592D550D8
:100A9D0013C3E43000069FFFE49EFEE42001039D96
:100AAD00FDE49CFCE4CBF8C201EC700CCFCECDCCB8
:100ABD00E824F8F870F38017C3EF33FFEE33FEED43
:100ACD0033FDEC33FCEB33FB994002FB0FD8E9EB24
:100ADD00300105F8D0E0C448B201C0E00AEC4D4E3B
:100AED004F78207B0070C2EAB5190040BCC0E012FF
:100AFD000B62D0F0D0E0200104C4C0E0C4B201C04C
:100B0D00F01208F1D0F0D5F0EB020941120DA60953
:100B1D00DE530A585809AF4C09AB420A5C4F0A64C0
:0F0B2D00440A644909C4430A6A550A4E460A4EEF
:100B3C00450A4E470C0A5009B32D09B72E09DA2B7A
:100B4C0009BB2309D8200BF32A097348000009D2EA
:100B5C003F3F3F00790AA2D5200314300509B91094
:100B6C00020404B9080104A2D52006025001042095
:100B7C0002689202B518005034C0E07F203003198F
:100B8C007F30A20272067205500F120BB9C202C25C
:100B9C0006C205C2087F30800F300503E9C0E012A1
:100BAC000908300503D0E0F9D0E0B518CC300517B2
:100BBC007F30B9100C1209087F583004077F7880F9
:100BCC0003B908031209083002057F2D0209087FBA
:100BDC00202008F87F2B2006F322920280CF286E6B
:100BEC00756C6C2900D2011208CD3001F8C2017865
:100BFC001830D50108F60209732D504349581208D4
:100C0C00CD2403B405004001E4900C05931208F9BF
:0D0C1C00743A1208F9D203751804020A5840
:100C4200E709F60870FA8046E709F20870FA803E72
:100C520088828C83E709F0A370FA807EE309F608A4
:100C620070FA8076E309F20870FA806E88828C83CB
:100C7200E309F0A370FA806289828A83E0A3F6080E
:100C820070FA805689828A83E0A3F20870FA804A59
:100C920080D280FA80C680D4806580F28031801054
:100CA20080A680EA809A80A880DA80E280CA8031B9
:100CB20089828A83ECFAE493A3C8C582C8CCC5832F
:100CC200CCF0A3C8C582C8CCC583CC70E9800D899D
:100CD200828A83E493A3F60870F9ECFAA9F0EDFB9B
:100CE2002289828A83ECFAE0A3C8C582C8CCC58374
:100CF200CCF0A3C8C582C8CCC583CC70EA80DD899C
:100D0200828A83E493A3F20870F980CE88F0ED24FE
:100D120002B4040050C4F582EB2402B4040050BAB9
:090D22002323458223900C9273F7
:1013F000E4FFFE120C29600C0FEF70010E09E9707A
:05140000F20A80EF225A
:100D2B00EF4E6012EF60010EEDBB010B89828A83DF
:100D3B00F0A3DFFCDEFA2289F05007F709DFFCA9EC
:0C0D4B00F022BBFEFCF309DFFCA9F02243
:100D5700BB010CE58229F582E5833AF583E0225051
:100D670006E92582F8E622BBFE06E92582F8E2229B
:0D0D7700E58229F582E5833AF583E49322B5
:100D8400BB010689828A83F0225002F722BBFE014E
:020D9400F32248
:100D9600FAE6FB0808E6F925F0F618E6CA3AF6225E
:100DA600D083D082F8E4937012740193700DA3A3DC
:100DB60093F8740193F5828883E4737402936860F0
:060DC600EFA3A3A380DFF0
:10130000EFB40A07740D12130B740A309811A899E0
:10131000B8130CC2983098FDA899C298B811F6304D
:0713200099FDC299F5992225
:00000001FF
