:03000000020B3CB4
:0C0B3C00787FE4F6D8FD758120020B8361
:10002600B7EBBAA3CCCE4C4F5645D1EEBEA7BEA772
:1000360000C0B6D1C0B4F2BFAA2E202E202E006179
:1000460062636465666768696A6B6C6D6E6F707112
:1000560072737475767700FFFFFFFFFFFFFFFFFFE8
:10006600FFFFFFFFFFFFFFFFFFFFFFFFFFFFFFFF9A
:10007600FFFFFFFFFFFFFFC00000000000000000C1
:1000860000000000000003C00000000000000000A7
:1000960000000000000003C0000000000000000097
:1000A60000000000000003C0000000000000000087
:1000B60000000000000003C0000000000000000077
:1000C60000000000000003C0000000000000000067
:1000D60000000000000003C01FFF81FFF0000000C9
:1000E60000000000000003C01FFF81FFF0000000B9
:1000F60000000000000003C018018000000000009E
:1001060000200800000003C01FFF800000040781D4
:10011600E0101003C03003C01FFF8000000C0CC3AA
:100126003008200CE07003C0180187FFFE3C1866FB
:100136001804400C607003C01FFF87FFFE0C186692
:100146001802801800B003C01FFF8006000C186656
:100156001801001B813003C001980006000C00E363
:100166003002801CC13003C019998066600C00C142
:10017600E0044018623003C019998066300C018390
:1001860030082018663003C00D9B00C6380C0306E5
:100196001810101867FC03C00D9B01C61C0C060640
:1001A60018200818603003C0019803860C0C0C0652
:1001B60018000008603003C07FFFE306000C180338
:1001C6003000000CC03003C07FFFE01E000C1FE1B2
:1001D600E0000007803003C00000001C00000000A3
:1001E60000000000000003C0000000000000000046
:1001F60000000000000003C0000000000000000036
:1002060000000000000003C0000000000000000025
:1002160000000000000003C0000000000000000015
:1002260000000000000003C0000000000000000005
:1002360000000000000003C00000000000000000F5
:1002460000000000000003C00000000000000000E5
:1002560000000000000003C000000000000C0000C9
:1002660018000000060C03C3FFFC3FF0800C003FA3
:100276001801FFFE060C03C3FFFC3FF1800FFC3F95
:100286001801FFFE060C03C30C0C0CC3000FFC3355
:100296007FE18606060C03C31FCC0CC6000C003398
:1002A6007FE18FE6060C03C33FCC0CCC000C003676
:1002B60030019FE607FFE3C3798C0CC800FFF036D8
:1002C6003601BCC607FFE3C36F0C7FF0C0FFF036F4
:1002D6006601B786060003C30F0C7FF180C0303677
:1002E6007FC18786060003C379EC0CC300C0303398
:1002F6007FC1BCF6060003C376EC0CC600C03033E3
:100306000601BB7607FF03C3070C0CCC20FFF033B6
:100316000601838607FF03C3030C18C860FFF03F7E
:1003260006018186060303C31C0C18C0C000003EEC
:10033600FFE18E06060303C31F0C18C181B18C3082
:10034600FFE18F86060303C3030C30C701B18C306F
:10035600060181860C0303C3FFFC70DE0318C6305A
:100366000601FFFE0C0303C3FFFC20180318C6306A
:100376000601FFFE180303C0000000000000000095
:1003860000000000000003C00000000000000000A4
:1003960000000000000003C0000000000000000094
:1003A60000000000000003C0000000000000000084
:1003B60000000000000003C0000000000000000074
:1003C60000000000000003C0000000000000000064
:1003D60000000000000003C0000000000000000054
:1003E60000000000000003C0000000000000000044
:1003F60000000000000003C0000000000000000034
:1004060000000000000003C0000000000000000023
:1004160000000000000003C0000000000000000013
:1004260000000000000003C0000000000000000003
:1004360000000000000003FFFFFFFFFFFFFFFFFFBC
:10044600FFFFFFFFFFFFFFFFFFFFFFFFFFFFFFFFB6
:10045600FFFFFFFFFFFFFFFFFFFFFFFFFFFFFFFFA6
:10046600FFFFFFFFFFFFFFFFFFFFFFFFFFFFFFFF96
:10047600FFFFFFFFFFFFFFC00000000000000000BD
:1004860000000000000003C00000000000000000A3
:1004960000000000000003C0000000000000000093
:1004A60000000000000003C0000000000000000083
:1004B60000000000000003C0000000000000000073
:1004C60000000000000003C3020E1C08F867E38763
:1004D6000C08387023E183C48E11221880902448BA
:1004E60092384488620243C8421122288100244877
:1004F600A1084488A20403C842010228F1E0444846
:10050600A1080408A3C783C842020C48891043887F
:10051600A1080831222443C842040288091044472E
:10052600A108100A202443C8420822FC891044402E
:10053600A108208BF22443C4821022088910844922
:1005460012084088222443C3021F1C0870E08386D9
:100556000C087C7021C383C000000000000000006E
:1005660000000000000003C00000000000000000C2
:1005760000000000000003C00000000000000000B2
:1005860000000000000003C00000000000000000A2
:1005960000000000000003CFC70E181070E047C32C
:1005A6003F1C386041C383C0489124708910C4043D
:1005B60081224491C22443C04891421089114408C3
:1005C60001224508422443C0889142100811478FF2
:1005D60002224508402043C0871142101062444859
:1005E600821C4508404183C0888F42102014404831
:1005F60082223D08408043C0888142104117E4486A
:1006060082220508410443C10892241081104448FF
:1006160084224890420443C1070C1810F8E043872F
:10062600041C306043E383C00000000000000000AB
:1006360000000000000003C00000000000000000F1
:1006460000000000000003C00000000000000000E1
:1006560000000000000003C00000000000000000D1
:1006660000000000000003C08F867E3870C08387BC
:10067600023E19F8E1C303C188090244892384486C
:1006860086202409122483C2881002448A108448D2
:100696008A204009122843C28F1E04448A108040D3
:1006A6008A3C7811122843C4889104388A108083C2
:1006B60012224410E22843C8809104447A10810033
:1006C600A202441111E843CFC89104440A108208DB
:1006D600BF224411102843C0889108449120840801
:1006E60082224421124483C0870E083860C087C71F
:1006F600021C3820E18303C0000000000000000057
:1007060000000000000003C0000000000000000020
:1007160000000000000003C0000000000000000010
:1007260000000000000003C0000000000000000000
:1007360000000000000003C1070E047C33F1C386ED
:10074600041C3811F0CFC3C708910C404812244945
:100756001C224431012043C10891144080122450C8
:1007660084224451020043C100811478F0222450AF
:1007760084020451E3C083C1010624448821C45085
:1007860084041891122083C102014404882223D0D4
:1007960084080510122083C104117E44882220504B
:1007A600841045F9122083C1081104448842248923
:1007B60004204411122103C10F8E04387041C30670
:1007C600043E3810E1C103C0000000000000000034
:1007D60000000000000003C0000000000000000050
:1007E60000000000000003C0000000000000000040
:1007F60000000000000003C0000000000000000030
:1008060000000000000003C000000000000000001F
:1008160000000000000003C000000000000000000F
:1008260000000000000003C00000000000000000FF
:1008360000000000000003FFFFFFFFFFFFFFFFFFB8
:10084600FFFFFFFFFFFFFFFFFFFFFFFFFFFFFFFFB2
:10085600FFFFFFFFFFFFFFC9CFBAA3BAC6EBE0B5A4
:10086600E7D7D3BFC6BCBCB5A5C6ACBBFABFAAB753
:10087600A2B0E5CFB5C1D0D6D0CEC4D7D6BFE2B2EE
:10088600E2CAD4B3CCD0F2B9A7CFB2B7A2B2C6C926
:10089600EDCCE5BDA1BFB500BAA3C4C9B0D9B4A813
:1008A600BFEDC8DDCEAACFC8D3FBB3C9B4F3D2B56A
:1008B600B3CFD0C5CEAACFC8D3CEDFAEC9CCBAA3EC
:1008C600BCC3CAC0CEAACFC8C8CBC1A2D3DACAC0DD
:0908D600CAD8B7A8CEAACFC80009
:050E36000310000001A3
:1009D400120C917E007F5D120A93120D8BC290D28D
:1009E40096D297120E01120BC8120DAF7E087F9E8D
:1009F400120CE3120D8BE51164016003020A837F7C
:100A04005212000312001C8F13E513249E601F145E
:100A1400602714603914604B1460602405706912F7
:100A24000BC8120DAF7E087F5D120CE38048120BD9
:100A3400C8120DAF120E22803D120BC8120DAF7BEF
:100A4400FF7A007926E4FD7F011208DF8028120B6B
:100A5400C8120DAF7BFF7A007937E4FD7F031208DB
:100A6400DF8013120BC8120DAF7BFF7A0079457D2E
:100A7400017F021208DF120D8B800DB2908009E510
:0F0A84001170057F52120003E51264010209FA96
:100E0100759850438920758DFDD28ED2AFD2ACC278
:020E1100AB2212
:100003008F087F147E00120DB3E508B45403B29633
:0900130022E508B45202B2972262
:03002300020C3C90
:100C3C00C0E0C0F0C083C082C0D075D000C000C07E
:100C4C0001C002C003C004C005C006C00730981222
:100C5C00C298859910751101E511B40105AF1012F8
:100C6C000E30309905C299751201D007D006D00507
:100C7C00D004D003D002D001D000D0D0D082D08309
:050C8C00D0F0D0E032C1
:06001C00E4F511AF102213
:060E3000E4F5128F992287
:100D32008B148A158916AB14AA15A916120DD36045
:100D42001BE51260FCAB140516E516AA1570020528
:0D0D52001514F9120DD3FF120E3080DA22B5
:100BC8007F287E00120DB3D2A17F017E00120DB3E3
:100BD800C2A37F017E00120DB3D2A37F0A7E00124A
:100BE8000DB3C2007F30120D6A120DAFC2007F3004
:100BF800120D6A7F257E00120DB3C2007F08120D08
:100C08006A120DAFC2007F10120D6A120DAFC2003A
:100C18007F0C120D6A120DAFC2007F01120D6A7FA0
:100C28000A7E00120DB3C2007F06120D6A7F647E31
:040C380000020DB3F6
:100C91007F287E00120DB3D2A17F017E00120DB319
:100CA100C2A37F017E00120DB3D2A37F0A7E001280
:100CB1000DB3C2007F36120D6A120DAFC2007F362E
:100CC100120D6A7F257E00120DB3C2007F3E120D08
:100CD1006A120DAFC2007F01120D6A7F647E0002AD
:020CE1000DB351
:040CE3008E088F09DF
:100CE700AA06A9077BFF120DEC8F0BC2007F8012AB
:100CF7000D6AE4F50A120D5F0509E509700205089A
:100D0700050AE50AC3942040ECC2007F90120D6AE1
:100D1700120DAFE4F50A120D5F0509E5097002052A
:0A0D270008050AE50AC3942040EC19
:010D3100229F
:0A08DF008F088D098B0A8A0B890C23
:1008E900E4F50EC2007F30120D6AC2007F06120DB8
:1008F9006AE5087005750D80801CE508B401057569
:100909000D908012E508B40205750D888008E50888
:10091900B40303750D98E50D2509FFC2000209CD41
:10092900AB0AAA0BA90C120DD3FF70030209D3D28B
:1009390000120D6A7401250CF50CE4350BF50B0555
:100949000EE50975F002A47C00250EFFEC35F0FEDA
:10095900EF64104E7020E5087006C2007F90806435
:10096900E508B40106C2007F888059E508B402B0E1
:10097900C2007F98804EE50975F002A47C00250E1F
:10098900FFEC35F0FEEF64204E7016E5087006C2E4
:10099900007F88802FE50864017085C2007F9880F8
:1009A90023E50975F002A47C00250EFFEC35F0FE65
:1009B900EF64304E6003020929E508600302092942
:0A09C900C2007F98120D6A0209298E
:0109D3002201
:0E0E2200C2007F01120D6AC200E4FF020D6AD9
:0B0D5F00850982850883E493FFD20021
:100D6A008F0F120E13C2A5A20092A47F017E001259
:100D7A000DB3850F80D2A67F017E00120DB3C2A6E5
:010D8A002246
:040D8B007FC87E009F
:100D8F00E4FDFCC3ED9FEC9E5015E4FBFA0BBB009A
:0F0D9F00010ABA07F8BBD0F50DBD00010C80E4C6
:010DAE002222
:040DAF007F647E00DF
:100DB300E4FDFCC3ED9FEC9E5015E4FBFA0BBB0076
:0F0DC300010AEB640A4A70F50DBD00010C80E4D3
:010DD20022FE
:040A93008E088F0931
:100A9700E4F50AF50BE50B2480FFC200120D6AC2CC
:100AA700007F80120D6AE4F50CF50D850982850833
:100AB70083120D650509E50970020508050DE50DA9
:100AC7007002050CC39410E50C6480948040DC052B
:100AD7000BE50B7002050AC39420E50A6480948035
:100AE70040B3E4F50AF50BE50B2480FFC200120DB5
:100AF7006AC2007F88120D6AE4F50CF50D8509823C
:100B0700850883120D650509E50970020508050DBD
:100B1700E50D7002050CC39410E50C6480948040C9
:100B2700DC050BE50B7002050AC39420E50A648017
:040B3700948040B3B3
:010B3B002297
:0F0E13007580FFC2A4D2A5D2A62087FDC2A62259
:100B48000209D4E493A3F8E493A34003F68001F2E6
:100B580008DFF48029E493A3F85407240CC8C333AE
:100B6800C4540F4420C8834004F456800146F6DF7D
:100B7800E4800B0102040810204080900E36E47EC9
:100B8800019360BCA3FF543F30E509541FFEE49372
:100B9800A360010ECF54C025E060A840B8E493A339
:100BA800FAE493A3F8E493A3C8C582C8CAC583CA64
:100BB800F0A3C8C582C8CAC583CADFE9DEE780BE1C
:010E3B0000B6
:100DD300BB010689828A83E0225002E722BBFE021E
:090DE300E32289828A83E4932251
:100DEC00E4FFFE120DD3600C0FEF70010E09E970D9
:050DFC00F20A80EF2265
:00000001FF
