:03000000020A7D74
:0C0A7D00787FE4F6D8FD758120020AC4E1
:10002600B7EBBAA3CCCE4C4F5645D1EEBEA7BEA772
:1000360000C0B6D1C0B4F2BFAA2E202E202E006179
:1000460062636465666768696A6B6C6D6E6F707112
:1000560072737475767700FFFFFFFFFFFFFFFFFFE8
:10006600FFFFFFFFFFFFFFFFFFFFFFFFFFFFFFFF9A
:10007600FFFFFFFFFFFFFFC00000000000000000C1
:1000860000000000000003C00000000000000000A7
:1000960000000000000003C0000000000000000097
:1000A60000000000000003C0000000000000000087
:1000B60000000000000003C0000000000000000077
:1000C60000000000000003C0000000000000000067
:1000D60000000000000003C01FFF81FFF0000000C9
:1000E60000000000000003C01FFF81FFF0000000B9
:1000F60000000000000003C018018000000000009E
:1001060000200800000003C01FFF800000040781D4
:10011600E0101003C03003C01FFF8000000C0CC3AA
:100126003008200CE07003C0180187FFFE3C1866FB
:100136001804400C607003C01FFF87FFFE0C186692
:100146001802801800B003C01FFF8006000C186656
:100156001801001B813003C001980006000C00E363
:100166003002801CC13003C019998066600C00C142
:10017600E0044018623003C019998066300C018390
:1001860030082018663003C00D9B00C6380C0306E5
:100196001810101867FC03C00D9B01C61C0C060640
:1001A60018200818603003C0019803860C0C0C0652
:1001B60018000008603003C07FFFE306000C180338
:1001C6003000000CC03003C07FFFE01E000C1FE1B2
:1001D600E0000007803003C00000001C00000000A3
:1001E60000000000000003C0000000000000000046
:1001F60000000000000003C0000000000000000036
:1002060000000000000003C0000000000000000025
:1002160000000000000003C0000000000000000015
:1002260000000000000003C0000000000000000005
:1002360000000000000003C00000000000000000F5
:1002460000000000000003C00000000000000000E5
:1002560000000000000003C000000000000C0000C9
:1002660018000000060C03C3FFFC3FF0800C003FA3
:100276001801FFFE060C03C3FFFC3FF1800FFC3F95
:100286001801FFFE060C03C30C0C0CC3000FFC3355
:100296007FE18606060C03C31FCC0CC6000C003398
:1002A6007FE18FE6060C03C33FCC0CCC000C003676
:1002B60030019FE607FFE3C3798C0CC800FFF036D8
:1002C6003601BCC607FFE3C36F0C7FF0C0FFF036F4
:1002D6006601B786060003C30F0C7FF180C0303677
:1002E6007FC18786060003C379EC0CC300C0303398
:1002F6007FC1BCF6060003C376EC0CC600C03033E3
:100306000601BB7607FF03C3070C0CCC20FFF033B6
:100316000601838607FF03C3030C18C860FFF03F7E
:1003260006018186060303C31C0C18C0C000003EEC
:10033600FFE18E06060303C31F0C18C181B18C3082
:10034600FFE18F86060303C3030C30C701B18C306F
:10035600060181860C0303C3FFFC70DE0318C6305A
:100366000601FFFE0C0303C3FFFC20180318C6306A
:100376000601FFFE180303C0000000000000000095
:1003860000000000000003C00000000000000000A4
:1003960000000000000003C0000000000000000094
:1003A60000000000000003C0000000000000000084
:1003B60000000000000003C0000000000000000074
:1003C60000000000000003C0000000000000000064
:1003D60000000000000003C0000000000000000054
:1003E60000000000000003C0000000000000000044
:1003F60000000000000003C0000000000000000034
:1004060000000000000003C0000000000000000023
:1004160000000000000003C0000000000000000013
:1004260000000000000003C0000000000000000003
:1004360000000000000003FFFFFFFFFFFFFFFFFFBC
:10044600FFFFFFFFFFFFFFFFFFFFFFFFFFFFFFFFB6
:10045600FFFFFFFFFFFFFFFFFFFFFFFFFFFFFFFFA6
:10046600FFFFFFFFFFFFFFFFFFFFFFFFFFFFFFFF96
:10047600FFFFFFFFFFFFFFC00000000000000000BD
:1004860000000000000003C00000000000000000A3
:1004960000000000000003C0000000000000000093
:1004A60000000000000003C0000000000000000083
:1004B60000000000000003C0000000000000000073
:1004C60000000000000003C3020E1C08F867E38763
:1004D6000C08387023E183C48E11221880902448BA
:1004E60092384488620243C8421122288100244877
:1004F600A1084488A20403C842010228F1E0444846
:10050600A1080408A3C783C842020C48891043887F
:10051600A1080831222443C842040288091044472E
:10052600A108100A202443C8420822FC891044402E
:10053600A108208BF22443C4821022088910844922
:1005460012084088222443C3021F1C0870E08386D9
:100556000C087C7021C383C000000000000000006E
:1005660000000000000003C00000000000000000C2
:1005760000000000000003C00000000000000000B2
:1005860000000000000003C00000000000000000A2
:1005960000000000000003CFC70E181070E047C32C
:1005A6003F1C386041C383C0489124708910C4043D
:1005B60081224491C22443C04891421089114408C3
:1005C60001224508422443C0889142100811478FF2
:1005D60002224508402043C0871142101062444859
:1005E600821C4508404183C0888F42102014404831
:1005F60082223D08408043C0888142104117E4486A
:1006060082220508410443C10892241081104448FF
:1006160084224890420443C1070C1810F8E043872F
:10062600041C306043E383C00000000000000000AB
:1006360000000000000003C00000000000000000F1
:1006460000000000000003C00000000000000000E1
:1006560000000000000003C00000000000000000D1
:1006660000000000000003C08F867E3870C08387BC
:10067600023E19F8E1C303C188090244892384486C
:1006860086202409122483C2881002448A108448D2
:100696008A204009122843C28F1E04448A108040D3
:1006A6008A3C7811122843C4889104388A108083C2
:1006B60012224410E22843C8809104447A10810033
:1006C600A202441111E843CFC89104440A108208DB
:1006D600BF224411102843C0889108449120840801
:1006E60082224421124483C0870E083860C087C71F
:1006F600021C3820E18303C0000000000000000057
:1007060000000000000003C0000000000000000020
:1007160000000000000003C0000000000000000010
:1007260000000000000003C0000000000000000000
:1007360000000000000003C1070E047C33F1C386ED
:10074600041C3811F0CFC3C708910C404812244945
:100756001C224431012043C10891144080122450C8
:1007660084224451020043C100811478F0222450AF
:1007760084020451E3C083C1010624448821C45085
:1007860084041891122083C102014404882223D0D4
:1007960084080510122083C104117E44882220504B
:1007A600841045F9122083C1081104448842248923
:1007B60004204411122103C10F8E04387041C30670
:1007C600043E3810E1C103C0000000000000000034
:1007D60000000000000003C0000000000000000050
:1007E60000000000000003C0000000000000000040
:1007F60000000000000003C0000000000000000030
:1008060000000000000003C000000000000000001F
:1008160000000000000003C000000000000000000F
:1008260000000000000003C00000000000000000FF
:1008360000000000000003FFFFFFFFFFFFFFFFFFB8
:10084600FFFFFFFFFFFFFFFFFFFFFFFFFFFFFFFFB2
:10085600FFFFFFFFFFFFFFC9CFBAA3BAC6EBE0B5A4
:10086600E7D7D3BFC6BCBCB5A5C6ACBBFABFAAB753
:10087600A2B0E5CFB5C1D0D6D0CEC4D7D6BFE2B2EE
:10088600E2CAD4B3CCD0F2B9A7CFB2B7A2B2C6C926
:10089600EDCCE5BDA1BFB500BAA3C4C9B0D9B4A813
:1008A600BFEDC8DDCEAACFC8D3FBB3C9B4F3D2B56A
:1008B600B3CFD0C5CEAACFC8D3CEDFAEC9CCBAA3EC
:1008C600BCC3CAC0CEAACFC8C8CBC1A2D3DACAC0DD
:0908D600CAD8B7A8CEAACFC80009
:050DE0000310000001FA
:100B0900120C597E007F5D1209D47FC87E00120045
:100B190003120DA5120B90120D537E087F9E120C25
:100B2900AB7FF07E00120003E511B401FB120DD476
:100B39008F13120B90120D53E513249E6016146047
:100B49001814602114602A240470337E087F5D1212
:100B59000CAB802A120DC680257BFF7A007926E42A
:100B6900FD7F0180167BFF7A007937E4FD7F0380E2
:100B79000A7BFF7A0079457D017F021208DF7FF049
:070B89007E0012000380A1B1
:100DA500759850438920758DFDD28ED2AFD2ACC2D5
:020DB500AB226F
:03002300020C04C8
:100C0400C0E0C0F0C083C082C0D075D000C000C0B6
:100C140001C002C003C004C005C006C0073098125A
:100C2400C298859910751101E511B40105AF101230
:100C34000DDA309905C299751201D007D006D00596
:100C4400D004D003D002D001D000D0D0D082D08341
:050C5400D0F0D0E032F9
:060DD400E4F511AF10224E
:060DDA00E4F5128F9922DE
:100CFA008B148A158916AB14AA15A916120D7760DA
:100D0A001BE51260FCAB140516E516AA1570020560
:0D0D1A001514F9120D77FF120DDA80DA22A0
:100B90007F287E00120D57D2A17F017E00120D57D3
:100BA000C2A37F017E00120D57D2A37F0A7E0012DE
:100BB0000D57C2007F30120D32120D53C2007F302C
:100BC000120D327F257E00120D57C2007F08120DD4
:100BD00032120D53C2007F10120D32120D53C2009B
:100BE0007F0C120D32120D53C2007F01120D327FA5
:100BF0000A7E00120D57C2007F06120D327F647EFE
:040C000000020D578A
:100C59007F287E00120D57D2A17F017E00120D5709
:100C6900C2A37F017E00120D57D2A37F0A7E001214
:100C79000D57C2007F36120D32120D53C2007F3656
:100C8900120D327F257E00120D57C2007F3E120DD4
:100C990032120D53C2007F01120D327F647E0002B1
:020CA9000D57E5
:040CAB008E088F0917
:100CAF00AA06A9077BFF120D908F0BC2007F80123F
:100CBF000D32E4F50A120D270509E5097002050842
:100CCF00050AE50AC3942040ECC2007F90120D3252
:100CDF00120D53E4F50A120D270509E509700205F7
:0A0CEF0008050AE50AC3942040EC52
:010CF90022D8
:0A08DF008F088D098B0A8A0B890C23
:1008E900E4F50EC2007F30120D32C2007F06120DF0
:1008F90032E5087005750D80801CE508B4010575A1
:100909000D908012E508B40205750D888008E50888
:10091900B40303750D98E50D2509FFC2000209CD41
:10092900AB0AAA0BA90C120D77FF70030209D3D2E7
:1009390000120D327401250CF50CE4350BF50B058D
:100949000EE50975F002A47C00250EFFEC35F0FEDA
:10095900EF64104E7020E5087006C2007F90806435
:10096900E508B40106C2007F888059E508B402B0E1
:10097900C2007F98804EE50975F002A47C00250E1F
:10098900FFEC35F0FEEF64204E7016E5087006C2E4
:10099900007F88802FE50864017085C2007F9880F8
:1009A90023E50975F002A47C00250EFFEC35F0FE65
:1009B900EF64304E6003020929E508600302092942
:0A09C900C2007F98120D32020929C6
:0109D3002201
:0E0DC600C2007F01120D32C200E4FF020D32A6
:0B0D2700850982850883E493FFD20059
:100D32008F0F120DB7C2A5A20092A47F017E0012EE
:100D42000D57850F80D2A67F017E00120D57C2A6D5
:010D5200227E
:10000300E4FDFCC3ED9FEC9E5015E4FBFA0BBB0033
:0F001300010ABA07F8BBD0F50DBD00010C80E45F
:0100220022BB
:040D53007F647E003B
:100D5700E4FDFCC3ED9FEC9E5015E4FBFA0BBB00D2
:0F0D6700010AEB640A4A70F50DBD00010C80E42F
:010D7600225A
:0409D4008E088F09F1
:1009D800E4F50AF50BE50B2480FFC200120D32C2C4
:1009E800007F80120D32E4F50CF50D85098285082B
:1009F80083120D2D0509E50970020508050DE50DA1
:100A08007002050CC39410E50C6480948040DC05EA
:100A18000BE50B7002050AC39420E50A64809480F4
:100A280040B3E4F50AF50BE50B2480FFC200120D74
:100A380032C2007F88120D32E4F50CF50D8509826B
:100A4800850883120D2D0509E50970020508050DB5
:100A5800E50D7002050CC39410E50C648094804089
:100A6800DC050BE50B7002050AC39420E50A6480D7
:040A7800948040B373
:010A7C002257
:0F0DB7007580FFC2A4D2A5D2A62087FDC2A622B6
:100A8900020B09E493A3F8E493A34003F68001F26F
:100A990008DFF48029E493A3F85407240CC8C3336E
:100AA900C4540F4420C8834004F456800146F6DF3D
:100AB900E4800B0102040810204080900DE0E47EE0
:100AC900019360BCA3FF543F30E509541FFEE49332
:100AD900A360010ECF54C025E060A840B8E493A3F9
:100AE900FAE493A3F8E493A3C8C582C8CAC583CA24
:100AF900F0A3C8C582C8CAC583CADFE9DEE780BEDC
:010DE500000D
:100D7700BB010689828A83E0225002E722BBFE027A
:090D8700E32289828A83E49322AD
:100D9000E4FFFE120D77600C0FEF70010E09E97091
:050DA000F20A80EF22C1
:00000001FF
